{
  "contractName": "SneakerVerificationAndTransfer",
  "abi": [
    {
      "inputs": [],
      "stateMutability": "nonpayable",
      "type": "constructor"
    },
    {
      "anonymous": false,
      "inputs": [
        {
          "indexed": false,
          "internalType": "uint256",
          "name": "id",
          "type": "uint256"
        },
        {
          "indexed": false,
          "internalType": "address",
          "name": "from",
          "type": "address"
        },
        {
          "indexed": false,
          "internalType": "address",
          "name": "to",
          "type": "address"
        }
      ],
      "name": "OwnershipTransferred",
      "type": "event"
    },
    {
      "anonymous": false,
      "inputs": [
        {
          "indexed": false,
          "internalType": "uint256",
          "name": "id",
          "type": "uint256"
        },
        {
          "indexed": false,
          "internalType": "string",
          "name": "serialNumber",
          "type": "string"
        },
        {
          "indexed": false,
          "internalType": "address",
          "name": "owner",
          "type": "address"
        }
      ],
      "name": "SneakerRegistered",
      "type": "event"
    },
    {
      "inputs": [],
      "name": "admin",
      "outputs": [
        {
          "internalType": "address",
          "name": "",
          "type": "address"
        }
      ],
      "stateMutability": "view",
      "type": "function"
    },
    {
      "inputs": [],
      "name": "nextSneakerId",
      "outputs": [
        {
          "internalType": "uint256",
          "name": "",
          "type": "uint256"
        }
      ],
      "stateMutability": "view",
      "type": "function"
    },
    {
      "inputs": [
        {
          "internalType": "uint256",
          "name": "",
          "type": "uint256"
        }
      ],
      "name": "sneakers",
      "outputs": [
        {
          "internalType": "uint256",
          "name": "id",
          "type": "uint256"
        },
        {
          "internalType": "string",
          "name": "name",
          "type": "string"
        },
        {
          "internalType": "string",
          "name": "model",
          "type": "string"
        },
        {
          "internalType": "string",
          "name": "serialNumber",
          "type": "string"
        },
        {
          "internalType": "address",
          "name": "owner",
          "type": "address"
        }
      ],
      "stateMutability": "view",
      "type": "function"
    },
    {
      "inputs": [
        {
          "internalType": "string",
          "name": "_name",
          "type": "string"
        },
        {
          "internalType": "string",
          "name": "_model",
          "type": "string"
        },
        {
          "internalType": "string",
          "name": "_serialNumber",
          "type": "string"
        }
      ],
      "name": "registerSneaker",
      "outputs": [],
      "stateMutability": "nonpayable",
      "type": "function"
    },
    {
      "inputs": [
        {
          "internalType": "uint256",
          "name": "_sneakerId",
          "type": "uint256"
        }
      ],
      "name": "verifySneaker",
      "outputs": [
        {
          "components": [
            {
              "internalType": "uint256",
              "name": "id",
              "type": "uint256"
            },
            {
              "internalType": "string",
              "name": "name",
              "type": "string"
            },
            {
              "internalType": "string",
              "name": "model",
              "type": "string"
            },
            {
              "internalType": "string",
              "name": "serialNumber",
              "type": "string"
            },
            {
              "internalType": "address",
              "name": "owner",
              "type": "address"
            }
          ],
          "internalType": "struct SneakerVerificationAndTransfer.Sneaker",
          "name": "",
          "type": "tuple"
        }
      ],
      "stateMutability": "view",
      "type": "function"
    },
    {
      "inputs": [
        {
          "internalType": "uint256",
          "name": "_sneakerId",
          "type": "uint256"
        },
        {
          "internalType": "address",
          "name": "_newOwner",
          "type": "address"
        }
      ],
      "name": "transferOwnership",
      "outputs": [],
      "stateMutability": "nonpayable",
      "type": "function"
    }
  ],
  "bytecode": "0x6080604052600060015534801561001557600080fd5b50336000806101000a81548173ffffffffffffffffffffffffffffffffffffffff021916908373ffffffffffffffffffffffffffffffffffffffff160217905550611424806100656000396000f3fe608060405234801561001057600080fd5b50600436106100625760003560e01c8063181ecd441461006757806329507f7314610085578063bd2e065c146100a1578063eadb5fd5146100d5578063ee121316146100f1578063f851a44014610121575b600080fd5b61006f61013f565b60405161007c9190610b18565b60405180910390f35b61009f600480360381019061009a9190610bd1565b610145565b005b6100bb60048036038101906100b69190610c11565b6102c3565b6040516100cc959493929190610ce6565b60405180910390f35b6100ef60048036038101906100ea9190610e83565b6104b1565b005b61010b60048036038101906101069190610c11565b61075e565b6040516101189190611016565b60405180910390f35b6101296109f3565b6040516101369190611038565b60405180910390f35b60015481565b6001548211158015610158575060008214155b610197576040517f08c379a000000000000000000000000000000000000000000000000000000000815260040161018e9061109f565b60405180910390fd5b60006002600084815260200190815260200160002090508060040160009054906101000a900473ffffffffffffffffffffffffffffffffffffffff1673ffffffffffffffffffffffffffffffffffffffff163373ffffffffffffffffffffffffffffffffffffffff1614610240576040517f08c379a000000000000000000000000000000000000000000000000000000000815260040161023790611131565b60405180910390fd5b818160040160006101000a81548173ffffffffffffffffffffffffffffffffffffffff021916908373ffffffffffffffffffffffffffffffffffffffff1602179055507f16b85f49bf01212961345d3016c9a531894accf62eb7680f2045d79185cc0ec08333846040516102b693929190611151565b60405180910390a1505050565b60026020528060005260406000206000915090508060000154908060010180546102ec906111b7565b80601f0160208091040260200160405190810160405280929190818152602001828054610318906111b7565b80156103655780601f1061033a57610100808354040283529160200191610365565b820191906000526020600020905b81548152906001019060200180831161034857829003601f168201915b50505050509080600201805461037a906111b7565b80601f01602080910402602001604051908101604052809291908181526020018280546103a6906111b7565b80156103f35780601f106103c8576101008083540402835291602001916103f3565b820191906000526020600020905b8154815290600101906020018083116103d657829003601f168201915b505050505090806003018054610408906111b7565b80601f0160208091040260200160405190810160405280929190818152602001828054610434906111b7565b80156104815780601f1061045657610100808354040283529160200191610481565b820191906000526020600020905b81548152906001019060200180831161046457829003601f168201915b5050505050908060040160009054906101000a900473ffffffffffffffffffffffffffffffffffffffff16905085565b60008054906101000a900473ffffffffffffffffffffffffffffffffffffffff1673ffffffffffffffffffffffffffffffffffffffff163373ffffffffffffffffffffffffffffffffffffffff161461053f576040517f08c379a00000000000000000000000000000000000000000000000000000000081526004016105369061125a565b60405180910390fd5b600060038260405161055191906112b6565b908152602001604051809103902054146105a0576040517f08c379a000000000000000000000000000000000000000000000000000000000815260040161059790611319565b60405180910390fd5b600160008154809291906105b390611368565b91905055506040518060a00160405280600154815260200184815260200183815260200182815260200160008054906101000a900473ffffffffffffffffffffffffffffffffffffffff1673ffffffffffffffffffffffffffffffffffffffff16815250600260006001548152602001908152602001600020600082015181600001556020820151816001019080519060200190610652929190610a17565b50604082015181600201908051906020019061066f929190610a17565b50606082015181600301908051906020019061068c929190610a17565b5060808201518160040160006101000a81548173ffffffffffffffffffffffffffffffffffffffff021916908373ffffffffffffffffffffffffffffffffffffffff1602179055509050506001546003826040516106ea91906112b6565b9081526020016040518091039020819055507fe96daa6af967bc8bd54ca702ce120cc275b469a6ca18012b0d894b808f99b3f46001548260008054906101000a900473ffffffffffffffffffffffffffffffffffffffff16604051610751939291906113b0565b60405180910390a1505050565b610766610a9d565b6001548211158015610779575060008214155b6107b8576040517f08c379a00000000000000000000000000000000000000000000000000000000081526004016107af9061109f565b60405180910390fd5b600260008381526020019081526020016000206040518060a0016040529081600082015481526020016001820180546107f0906111b7565b80601f016020809104026020016040519081016040528092919081815260200182805461081c906111b7565b80156108695780601f1061083e57610100808354040283529160200191610869565b820191906000526020600020905b81548152906001019060200180831161084c57829003601f168201915b50505050508152602001600282018054610882906111b7565b80601f01602080910402602001604051908101604052809291908181526020018280546108ae906111b7565b80156108fb5780601f106108d0576101008083540402835291602001916108fb565b820191906000526020600020905b8154815290600101906020018083116108de57829003601f168201915b50505050508152602001600382018054610914906111b7565b80601f0160208091040260200160405190810160405280929190818152602001828054610940906111b7565b801561098d5780601f106109625761010080835404028352916020019161098d565b820191906000526020600020905b81548152906001019060200180831161097057829003601f168201915b505050505081526020016004820160009054906101000a900473ffffffffffffffffffffffffffffffffffffffff1673ffffffffffffffffffffffffffffffffffffffff1673ffffffffffffffffffffffffffffffffffffffff16815250509050919050565b60008054906101000a900473ffffffffffffffffffffffffffffffffffffffff1681565b828054610a23906111b7565b90600052602060002090601f016020900481019282610a455760008555610a8c565b82601f10610a5e57805160ff1916838001178555610a8c565b82800160010185558215610a8c579182015b82811115610a8b578251825591602001919060010190610a70565b5b509050610a999190610ae2565b5090565b6040518060a0016040528060008152602001606081526020016060815260200160608152602001600073ffffffffffffffffffffffffffffffffffffffff1681525090565b5b80821115610afb576000816000905550600101610ae3565b5090565b6000819050919050565b610b1281610aff565b82525050565b6000602082019050610b2d6000830184610b09565b92915050565b6000604051905090565b600080fd5b600080fd5b610b5081610aff565b8114610b5b57600080fd5b50565b600081359050610b6d81610b47565b92915050565b600073ffffffffffffffffffffffffffffffffffffffff82169050919050565b6000610b9e82610b73565b9050919050565b610bae81610b93565b8114610bb957600080fd5b50565b600081359050610bcb81610ba5565b92915050565b60008060408385031215610be857610be7610b3d565b5b6000610bf685828601610b5e565b9250506020610c0785828601610bbc565b9150509250929050565b600060208284031215610c2757610c26610b3d565b5b6000610c3584828501610b5e565b91505092915050565b600081519050919050565b600082825260208201905092915050565b60005b83811015610c78578082015181840152602081019050610c5d565b83811115610c87576000848401525b50505050565b6000601f19601f8301169050919050565b6000610ca982610c3e565b610cb38185610c49565b9350610cc3818560208601610c5a565b610ccc81610c8d565b840191505092915050565b610ce081610b93565b82525050565b600060a082019050610cfb6000830188610b09565b8181036020830152610d0d8187610c9e565b90508181036040830152610d218186610c9e565b90508181036060830152610d358185610c9e565b9050610d446080830184610cd7565b9695505050505050565b600080fd5b600080fd5b7f4e487b7100000000000000000000000000000000000000000000000000000000600052604160045260246000fd5b610d9082610c8d565b810181811067ffffffffffffffff82111715610daf57610dae610d58565b5b80604052505050565b6000610dc2610b33565b9050610dce8282610d87565b919050565b600067ffffffffffffffff821115610dee57610ded610d58565b5b610df782610c8d565b9050602081019050919050565b82818337600083830152505050565b6000610e26610e2184610dd3565b610db8565b905082815260208101848484011115610e4257610e41610d53565b5b610e4d848285610e04565b509392505050565b600082601f830112610e6a57610e69610d4e565b5b8135610e7a848260208601610e13565b91505092915050565b600080600060608486031215610e9c57610e9b610b3d565b5b600084013567ffffffffffffffff811115610eba57610eb9610b42565b5b610ec686828701610e55565b935050602084013567ffffffffffffffff811115610ee757610ee6610b42565b5b610ef386828701610e55565b925050604084013567ffffffffffffffff811115610f1457610f13610b42565b5b610f2086828701610e55565b9150509250925092565b610f3381610aff565b82525050565b600082825260208201905092915050565b6000610f5582610c3e565b610f5f8185610f39565b9350610f6f818560208601610c5a565b610f7881610c8d565b840191505092915050565b610f8c81610b93565b82525050565b600060a083016000830151610faa6000860182610f2a565b5060208301518482036020860152610fc28282610f4a565b91505060408301518482036040860152610fdc8282610f4a565b91505060608301518482036060860152610ff68282610f4a565b915050608083015161100b6080860182610f83565b508091505092915050565b600060208201905081810360008301526110308184610f92565b905092915050565b600060208201905061104d6000830184610cd7565b92915050565b7f536e65616b657220646f6573206e6f742065786973742e000000000000000000600082015250565b6000611089601783610c49565b915061109482611053565b602082019050919050565b600060208201905081810360008301526110b88161107c565b9050919050565b7f4f6e6c792074686520736e65616b65722773206f776e65722063616e2074726160008201527f6e736665722069742e0000000000000000000000000000000000000000000000602082015250565b600061111b602983610c49565b9150611126826110bf565b604082019050919050565b6000602082019050818103600083015261114a8161110e565b9050919050565b60006060820190506111666000830186610b09565b6111736020830185610cd7565b6111806040830184610cd7565b949350505050565b7f4e487b7100000000000000000000000000000000000000000000000000000000600052602260045260246000fd5b600060028204905060018216806111cf57607f821691505b6020821081036111e2576111e1611188565b5b50919050565b7f4f6e6c792061646d696e2063616e20706572666f726d2074686973206163746960008201527f6f6e000000000000000000000000000000000000000000000000000000000000602082015250565b6000611244602283610c49565b915061124f826111e8565b604082019050919050565b6000602082019050818103600083015261127381611237565b9050919050565b600081905092915050565b600061129082610c3e565b61129a818561127a565b93506112aa818560208601610c5a565b80840191505092915050565b60006112c28284611285565b915081905092915050565b7f536e65616b657220616c72656164792072656769737465726564000000000000600082015250565b6000611303601a83610c49565b915061130e826112cd565b602082019050919050565b60006020820190508181036000830152611332816112f6565b9050919050565b7f4e487b7100000000000000000000000000000000000000000000000000000000600052601160045260246000fd5b600061137382610aff565b91507fffffffffffffffffffffffffffffffffffffffffffffffffffffffffffffffff82036113a5576113a4611339565b5b600182019050919050565b60006060820190506113c56000830186610b09565b81810360208301526113d78185610c9e565b90506113e66040830184610cd7565b94935050505056fea26469706673582212203f729f93c2f53a7697a917d28e2e101bc81c74c47541975fcbc9435d57f4dd7c64736f6c634300080d0033",
  "immutableReferences": {},
  "source": "// SPDX-License-Identifier: GPL-3.0\n\npragma solidity 0.8.13;\n\ncontract SneakerVerificationAndTransfer {\n    address public admin;\n    uint256 public nextSneakerId = 0;\n\n    struct Sneaker {\n        uint256 id;\n        string name;\n        string model;\n        string serialNumber;\n        address owner;\n    }\n\n    mapping(uint256 => Sneaker) public sneakers;\n    mapping(string => uint256) serialNumberToSneakerId;\n\n    event SneakerRegistered(uint256 id, string serialNumber, address owner);\n    event OwnershipTransferred(uint256 id, address from, address to);\n\n    constructor() {\n        admin = msg.sender;\n    }\n\n    modifier onlyAdmin() {\n        require(msg.sender == admin, \"Only admin can perform this action\");\n        _;\n    }\n\n    function registerSneaker(string memory _name, string memory _model, string memory _serialNumber) external onlyAdmin {\n        require(serialNumberToSneakerId[_serialNumber] == 0, \"Sneaker already registered\");\n        nextSneakerId++;\n        sneakers[nextSneakerId] = Sneaker(nextSneakerId, _name, _model, _serialNumber, admin);\n        serialNumberToSneakerId[_serialNumber] = nextSneakerId;\n        emit SneakerRegistered(nextSneakerId, _serialNumber, admin);\n    }\n\n    function verifySneaker(uint256 _sneakerId) external view returns (Sneaker memory) {\n        require(_sneakerId <= nextSneakerId && _sneakerId != 0, \"Sneaker does not exist.\");\n        return sneakers[_sneakerId];\n    }\n\n    function transferOwnership(uint256 _sneakerId, address _newOwner) external {\n        require(_sneakerId <= nextSneakerId && _sneakerId != 0, \"Sneaker does not exist.\");\n        Sneaker storage sneaker = sneakers[_sneakerId];\n        require(msg.sender == sneaker.owner, \"Only the sneaker's owner can transfer it.\");\n        sneaker.owner = _newOwner;\n        emit OwnershipTransferred(_sneakerId, msg.sender, _newOwner);\n    }\n}\n",
  "sourcePath": "/Users/pranavkhot/Documents/SNEAKER_BLOCKCHAIN/contracts/SneakerAuth.sol",
  "compiler": {
    "name": "solc",
    "version": "0.8.13+commit.abaa5c0e.Emscripten.clang"
  },
  "schemaVersion": "3.4.16",
  "updatedAt": "2024-03-27T05:15:25.698Z",
  "devdoc": {
    "kind": "dev",
    "methods": {},
    "version": 1
  },
  "userdoc": {
    "kind": "user",
    "methods": {},
    "version": 1
  }
}