{
  "contractName": "SneakerAuth",
  "abi": [
    {
      "inputs": [],
      "stateMutability": "nonpayable",
      "type": "constructor"
    },
    {
      "anonymous": false,
      "inputs": [
        {
          "indexed": false,
          "internalType": "uint256",
          "name": "id",
          "type": "uint256"
        },
        {
          "indexed": false,
          "internalType": "address",
          "name": "from",
          "type": "address"
        },
        {
          "indexed": false,
          "internalType": "address",
          "name": "to",
          "type": "address"
        }
      ],
      "name": "OwnershipTransferred",
      "type": "event"
    },
    {
      "anonymous": false,
      "inputs": [
        {
          "indexed": false,
          "internalType": "uint256",
          "name": "id",
          "type": "uint256"
        },
        {
          "indexed": false,
          "internalType": "string",
          "name": "serialNumber",
          "type": "string"
        },
        {
          "indexed": false,
          "internalType": "address",
          "name": "owner",
          "type": "address"
        }
      ],
      "name": "SneakerRegistered",
      "type": "event"
    },
    {
      "inputs": [],
      "name": "admin",
      "outputs": [
        {
          "internalType": "address",
          "name": "",
          "type": "address"
        }
      ],
      "stateMutability": "view",
      "type": "function",
      "constant": true
    },
    {
      "inputs": [],
      "name": "nextSneakerId",
      "outputs": [
        {
          "internalType": "uint256",
          "name": "",
          "type": "uint256"
        }
      ],
      "stateMutability": "view",
      "type": "function",
      "constant": true
    },
    {
      "inputs": [
        {
          "internalType": "string",
          "name": "",
          "type": "string"
        }
      ],
      "name": "serialNumberToSneakerId",
      "outputs": [
        {
          "internalType": "uint256",
          "name": "",
          "type": "uint256"
        }
      ],
      "stateMutability": "view",
      "type": "function",
      "constant": true
    },
    {
      "inputs": [
        {
          "internalType": "uint256",
          "name": "",
          "type": "uint256"
        }
      ],
      "name": "sneakers",
      "outputs": [
        {
          "internalType": "uint256",
          "name": "id",
          "type": "uint256"
        },
        {
          "internalType": "string",
          "name": "name",
          "type": "string"
        },
        {
          "internalType": "string",
          "name": "model",
          "type": "string"
        },
        {
          "internalType": "string",
          "name": "serialNumber",
          "type": "string"
        },
        {
          "internalType": "address",
          "name": "owner",
          "type": "address"
        }
      ],
      "stateMutability": "view",
      "type": "function",
      "constant": true
    },
    {
      "inputs": [
        {
          "internalType": "string",
          "name": "_name",
          "type": "string"
        },
        {
          "internalType": "string",
          "name": "_model",
          "type": "string"
        },
        {
          "internalType": "string",
          "name": "_serialNumber",
          "type": "string"
        }
      ],
      "name": "registerSneaker",
      "outputs": [],
      "stateMutability": "nonpayable",
      "type": "function"
    },
    {
      "inputs": [
        {
          "internalType": "uint256",
          "name": "_sneakerId",
          "type": "uint256"
        }
      ],
      "name": "verifySneaker",
      "outputs": [
        {
          "components": [
            {
              "internalType": "uint256",
              "name": "id",
              "type": "uint256"
            },
            {
              "internalType": "string",
              "name": "name",
              "type": "string"
            },
            {
              "internalType": "string",
              "name": "model",
              "type": "string"
            },
            {
              "internalType": "string",
              "name": "serialNumber",
              "type": "string"
            },
            {
              "internalType": "address",
              "name": "owner",
              "type": "address"
            }
          ],
          "internalType": "struct SneakerAuth.Sneaker",
          "name": "",
          "type": "tuple"
        }
      ],
      "stateMutability": "view",
      "type": "function",
      "constant": true
    },
    {
      "inputs": [
        {
          "internalType": "uint256",
          "name": "_sneakerId",
          "type": "uint256"
        },
        {
          "internalType": "address",
          "name": "_newOwner",
          "type": "address"
        }
      ],
      "name": "transferOwnership",
      "outputs": [],
      "stateMutability": "nonpayable",
      "type": "function"
    },
    {
      "inputs": [
        {
          "internalType": "string",
          "name": "_serialNumber",
          "type": "string"
        }
      ],
      "name": "verifySneakerBySerialNumber",
      "outputs": [
        {
          "components": [
            {
              "internalType": "uint256",
              "name": "id",
              "type": "uint256"
            },
            {
              "internalType": "string",
              "name": "name",
              "type": "string"
            },
            {
              "internalType": "string",
              "name": "model",
              "type": "string"
            },
            {
              "internalType": "string",
              "name": "serialNumber",
              "type": "string"
            },
            {
              "internalType": "address",
              "name": "owner",
              "type": "address"
            }
          ],
          "internalType": "struct SneakerAuth.Sneaker",
          "name": "",
          "type": "tuple"
        }
      ],
      "stateMutability": "view",
      "type": "function",
      "constant": true
    }
  ],
  "bytecode": "0x6080604052600060015534801561001557600080fd5b50336000806101000a81548173ffffffffffffffffffffffffffffffffffffffff021916908373ffffffffffffffffffffffffffffffffffffffff1602179055506117cb806100656000396000f3fe608060405234801561001057600080fd5b50600436106100885760003560e01c8063bd2e065c1161005b578063bd2e065c14610127578063eadb5fd51461015b578063ee12131614610177578063f851a440146101a757610088565b8063181ecd441461008d57806329507f73146100ab578063302064e8146100c75780635130b3cb146100f7575b600080fd5b6100956101c5565b6040516100a29190610e76565b60405180910390f35b6100c560048036038101906100c09190610f2f565b6101cb565b005b6100e160048036038101906100dc91906110b5565b610349565b6040516100ee9190610e76565b60405180910390f35b610111600480360381019061010c91906110b5565b610377565b60405161011e9190611228565b60405180910390f35b610141600480360381019061013c919061124a565b610621565b6040516101529594939291906112d0565b60405180910390f35b61017560048036038101906101709190611338565b61080f565b005b610191600480360381019061018c919061124a565b610abc565b60405161019e9190611228565b60405180910390f35b6101af610d51565b6040516101bc91906113df565b60405180910390f35b60015481565b60015482111580156101de575060008214155b61021d576040517f08c379a000000000000000000000000000000000000000000000000000000000815260040161021490611446565b60405180910390fd5b60006002600084815260200190815260200160002090508060040160009054906101000a900473ffffffffffffffffffffffffffffffffffffffff1673ffffffffffffffffffffffffffffffffffffffff163373ffffffffffffffffffffffffffffffffffffffff16146102c6576040517f08c379a00000000000000000000000000000000000000000000000000000000081526004016102bd906114d8565b60405180910390fd5b818160040160006101000a81548173ffffffffffffffffffffffffffffffffffffffff021916908373ffffffffffffffffffffffffffffffffffffffff1602179055507f16b85f49bf01212961345d3016c9a531894accf62eb7680f2045d79185cc0ec083338460405161033c939291906114f8565b60405180910390a1505050565b6003818051602081018201805184825260208301602085012081835280955050505050506000915090505481565b61037f610d75565b6000600383604051610391919061156b565b9081526020016040518091039020549050600081036103e5576040517f08c379a00000000000000000000000000000000000000000000000000000000081526004016103dc90611446565b60405180910390fd5b600260008281526020019081526020016000206040518060a00160405290816000820154815260200160018201805461041d906115b1565b80601f0160208091040260200160405190810160405280929190818152602001828054610449906115b1565b80156104965780601f1061046b57610100808354040283529160200191610496565b820191906000526020600020905b81548152906001019060200180831161047957829003601f168201915b505050505081526020016002820180546104af906115b1565b80601f01602080910402602001604051908101604052809291908181526020018280546104db906115b1565b80156105285780601f106104fd57610100808354040283529160200191610528565b820191906000526020600020905b81548152906001019060200180831161050b57829003601f168201915b50505050508152602001600382018054610541906115b1565b80601f016020809104026020016040519081016040528092919081815260200182805461056d906115b1565b80156105ba5780601f1061058f576101008083540402835291602001916105ba565b820191906000526020600020905b81548152906001019060200180831161059d57829003601f168201915b505050505081526020016004820160009054906101000a900473ffffffffffffffffffffffffffffffffffffffff1673ffffffffffffffffffffffffffffffffffffffff1673ffffffffffffffffffffffffffffffffffffffff1681525050915050919050565b600260205280600052604060002060009150905080600001549080600101805461064a906115b1565b80601f0160208091040260200160405190810160405280929190818152602001828054610676906115b1565b80156106c35780601f10610698576101008083540402835291602001916106c3565b820191906000526020600020905b8154815290600101906020018083116106a657829003601f168201915b5050505050908060020180546106d8906115b1565b80601f0160208091040260200160405190810160405280929190818152602001828054610704906115b1565b80156107515780601f1061072657610100808354040283529160200191610751565b820191906000526020600020905b81548152906001019060200180831161073457829003601f168201915b505050505090806003018054610766906115b1565b80601f0160208091040260200160405190810160405280929190818152602001828054610792906115b1565b80156107df5780601f106107b4576101008083540402835291602001916107df565b820191906000526020600020905b8154815290600101906020018083116107c257829003601f168201915b5050505050908060040160009054906101000a900473ffffffffffffffffffffffffffffffffffffffff16905085565b60008054906101000a900473ffffffffffffffffffffffffffffffffffffffff1673ffffffffffffffffffffffffffffffffffffffff163373ffffffffffffffffffffffffffffffffffffffff161461089d576040517f08c379a000000000000000000000000000000000000000000000000000000000815260040161089490611654565b60405180910390fd5b60006003826040516108af919061156b565b908152602001604051809103902054146108fe576040517f08c379a00000000000000000000000000000000000000000000000000000000081526004016108f5906116c0565b60405180910390fd5b600160008154809291906109119061170f565b91905055506040518060a00160405280600154815260200184815260200183815260200182815260200160008054906101000a900473ffffffffffffffffffffffffffffffffffffffff1673ffffffffffffffffffffffffffffffffffffffff168152506002600060015481526020019081526020016000206000820151816000015560208201518160010190805190602001906109b0929190610dba565b5060408201518160020190805190602001906109cd929190610dba565b5060608201518160030190805190602001906109ea929190610dba565b5060808201518160040160006101000a81548173ffffffffffffffffffffffffffffffffffffffff021916908373ffffffffffffffffffffffffffffffffffffffff160217905550905050600154600382604051610a48919061156b565b9081526020016040518091039020819055507fe96daa6af967bc8bd54ca702ce120cc275b469a6ca18012b0d894b808f99b3f46001548260008054906101000a900473ffffffffffffffffffffffffffffffffffffffff16604051610aaf93929190611757565b60405180910390a1505050565b610ac4610d75565b6001548211158015610ad7575060008214155b610b16576040517f08c379a0000000000000000000000000000000000000000000000000000000008152600401610b0d90611446565b60405180910390fd5b600260008381526020019081526020016000206040518060a001604052908160008201548152602001600182018054610b4e906115b1565b80601f0160208091040260200160405190810160405280929190818152602001828054610b7a906115b1565b8015610bc75780601f10610b9c57610100808354040283529160200191610bc7565b820191906000526020600020905b815481529060010190602001808311610baa57829003601f168201915b50505050508152602001600282018054610be0906115b1565b80601f0160208091040260200160405190810160405280929190818152602001828054610c0c906115b1565b8015610c595780601f10610c2e57610100808354040283529160200191610c59565b820191906000526020600020905b815481529060010190602001808311610c3c57829003601f168201915b50505050508152602001600382018054610c72906115b1565b80601f0160208091040260200160405190810160405280929190818152602001828054610c9e906115b1565b8015610ceb5780601f10610cc057610100808354040283529160200191610ceb565b820191906000526020600020905b815481529060010190602001808311610cce57829003601f168201915b505050505081526020016004820160009054906101000a900473ffffffffffffffffffffffffffffffffffffffff1673ffffffffffffffffffffffffffffffffffffffff1673ffffffffffffffffffffffffffffffffffffffff16815250509050919050565b60008054906101000a900473ffffffffffffffffffffffffffffffffffffffff1681565b6040518060a0016040528060008152602001606081526020016060815260200160608152602001600073ffffffffffffffffffffffffffffffffffffffff1681525090565b828054610dc6906115b1565b90600052602060002090601f016020900481019282610de85760008555610e2f565b82601f10610e0157805160ff1916838001178555610e2f565b82800160010185558215610e2f579182015b82811115610e2e578251825591602001919060010190610e13565b5b509050610e3c9190610e40565b5090565b5b80821115610e59576000816000905550600101610e41565b5090565b6000819050919050565b610e7081610e5d565b82525050565b6000602082019050610e8b6000830184610e67565b92915050565b6000604051905090565b600080fd5b600080fd5b610eae81610e5d565b8114610eb957600080fd5b50565b600081359050610ecb81610ea5565b92915050565b600073ffffffffffffffffffffffffffffffffffffffff82169050919050565b6000610efc82610ed1565b9050919050565b610f0c81610ef1565b8114610f1757600080fd5b50565b600081359050610f2981610f03565b92915050565b60008060408385031215610f4657610f45610e9b565b5b6000610f5485828601610ebc565b9250506020610f6585828601610f1a565b9150509250929050565b600080fd5b600080fd5b6000601f19601f8301169050919050565b7f4e487b7100000000000000000000000000000000000000000000000000000000600052604160045260246000fd5b610fc282610f79565b810181811067ffffffffffffffff82111715610fe157610fe0610f8a565b5b80604052505050565b6000610ff4610e91565b90506110008282610fb9565b919050565b600067ffffffffffffffff8211156110205761101f610f8a565b5b61102982610f79565b9050602081019050919050565b82818337600083830152505050565b600061105861105384611005565b610fea565b90508281526020810184848401111561107457611073610f74565b5b61107f848285611036565b509392505050565b600082601f83011261109c5761109b610f6f565b5b81356110ac848260208601611045565b91505092915050565b6000602082840312156110cb576110ca610e9b565b5b600082013567ffffffffffffffff8111156110e9576110e8610ea0565b5b6110f584828501611087565b91505092915050565b61110781610e5d565b82525050565b600081519050919050565b600082825260208201905092915050565b60005b8381101561114757808201518184015260208101905061112c565b83811115611156576000848401525b50505050565b60006111678261110d565b6111718185611118565b9350611181818560208601611129565b61118a81610f79565b840191505092915050565b61119e81610ef1565b82525050565b600060a0830160008301516111bc60008601826110fe565b50602083015184820360208601526111d4828261115c565b915050604083015184820360408601526111ee828261115c565b91505060608301518482036060860152611208828261115c565b915050608083015161121d6080860182611195565b508091505092915050565b6000602082019050818103600083015261124281846111a4565b905092915050565b6000602082840312156112605761125f610e9b565b5b600061126e84828501610ebc565b91505092915050565b600082825260208201905092915050565b60006112938261110d565b61129d8185611277565b93506112ad818560208601611129565b6112b681610f79565b840191505092915050565b6112ca81610ef1565b82525050565b600060a0820190506112e56000830188610e67565b81810360208301526112f78187611288565b9050818103604083015261130b8186611288565b9050818103606083015261131f8185611288565b905061132e60808301846112c1565b9695505050505050565b60008060006060848603121561135157611350610e9b565b5b600084013567ffffffffffffffff81111561136f5761136e610ea0565b5b61137b86828701611087565b935050602084013567ffffffffffffffff81111561139c5761139b610ea0565b5b6113a886828701611087565b925050604084013567ffffffffffffffff8111156113c9576113c8610ea0565b5b6113d586828701611087565b9150509250925092565b60006020820190506113f460008301846112c1565b92915050565b7f536e65616b657220646f6573206e6f742065786973742e000000000000000000600082015250565b6000611430601783611277565b915061143b826113fa565b602082019050919050565b6000602082019050818103600083015261145f81611423565b9050919050565b7f4f6e6c792074686520736e65616b65722773206f776e65722063616e2074726160008201527f6e736665722069742e0000000000000000000000000000000000000000000000602082015250565b60006114c2602983611277565b91506114cd82611466565b604082019050919050565b600060208201905081810360008301526114f1816114b5565b9050919050565b600060608201905061150d6000830186610e67565b61151a60208301856112c1565b61152760408301846112c1565b949350505050565b600081905092915050565b60006115458261110d565b61154f818561152f565b935061155f818560208601611129565b80840191505092915050565b6000611577828461153a565b915081905092915050565b7f4e487b7100000000000000000000000000000000000000000000000000000000600052602260045260246000fd5b600060028204905060018216806115c957607f821691505b6020821081036115dc576115db611582565b5b50919050565b7f4f6e6c792061646d696e2063616e20706572666f726d2074686973206163746960008201527f6f6e000000000000000000000000000000000000000000000000000000000000602082015250565b600061163e602283611277565b9150611649826115e2565b604082019050919050565b6000602082019050818103600083015261166d81611631565b9050919050565b7f536e65616b657220616c72656164792072656769737465726564000000000000600082015250565b60006116aa601a83611277565b91506116b582611674565b602082019050919050565b600060208201905081810360008301526116d98161169d565b9050919050565b7f4e487b7100000000000000000000000000000000000000000000000000000000600052601160045260246000fd5b600061171a82610e5d565b91507fffffffffffffffffffffffffffffffffffffffffffffffffffffffffffffffff820361174c5761174b6116e0565b5b600182019050919050565b600060608201905061176c6000830186610e67565b818103602083015261177e8185611288565b905061178d60408301846112c1565b94935050505056fea26469706673582212209229a8137a65e2a2e5edc604a94b35b1ee8b5b22b7cb32edd3459b3140bf072664736f6c634300080d0033",
  "immutableReferences": {},
  "source": "// SPDX-License-Identifier: GPL-3.0\npragma solidity 0.8.13;\n\ncontract SneakerAuth {\n    address public admin;\n    uint256 public nextSneakerId = 0;\n\n    struct Sneaker {\n        uint256 id;\n        string name;\n        string model;\n        string serialNumber;\n        address owner;\n    }\n\n    mapping(uint256 => Sneaker) public sneakers;\n    mapping(string => uint256) public serialNumberToSneakerId;\n\n    event SneakerRegistered(uint256 id, string serialNumber, address owner);\n    event OwnershipTransferred(uint256 id, address from, address to);\n\n    constructor() {\n        admin = msg.sender;\n    }\n\n    modifier onlyAdmin() {\n        require(msg.sender == admin, \"Only admin can perform this action\");\n        _;\n    }\n\n    function registerSneaker(string memory _name, string memory _model, string memory _serialNumber) external onlyAdmin {\n        require(serialNumberToSneakerId[_serialNumber] == 0, \"Sneaker already registered\");\n        nextSneakerId++;\n        sneakers[nextSneakerId] = Sneaker(nextSneakerId, _name, _model, _serialNumber, admin);\n        serialNumberToSneakerId[_serialNumber] = nextSneakerId;\n        emit SneakerRegistered(nextSneakerId, _serialNumber, admin);\n    }\n\n    function verifySneaker(uint256 _sneakerId) external view returns (Sneaker memory) {\n        require(_sneakerId <= nextSneakerId && _sneakerId != 0, \"Sneaker does not exist.\");\n        return sneakers[_sneakerId];\n    }\n\n    function transferOwnership(uint256 _sneakerId, address _newOwner) external {\n        require(_sneakerId <= nextSneakerId && _sneakerId != 0, \"Sneaker does not exist.\");\n        Sneaker storage sneaker = sneakers[_sneakerId];\n        require(msg.sender == sneaker.owner, \"Only the sneaker's owner can transfer it.\");\n        sneaker.owner = _newOwner;\n        emit OwnershipTransferred(_sneakerId, msg.sender, _newOwner);\n    }\n\n    // New function to verify sneaker by serial number\n    function verifySneakerBySerialNumber(string memory _serialNumber) external view returns (Sneaker memory) {\n        uint256 sneakerId = serialNumberToSneakerId[_serialNumber];\n        require(sneakerId != 0, \"Sneaker does not exist.\");\n        return sneakers[sneakerId];\n    }\n}\n",
  "sourcePath": "/Users/pranavkhot/Documents/SNEAKER_BLOCKCHAIN/contracts/SneakerAuth.sol",
  "compiler": {
    "name": "solc",
    "version": "0.8.13+commit.abaa5c0e.Emscripten.clang"
  },
  "schemaVersion": "3.4.16",
  "updatedAt": "2024-04-10T04:53:10.898Z",
  "networkType": "ethereum",
  "devdoc": {
    "kind": "dev",
    "methods": {},
    "version": 1
  },
  "userdoc": {
    "kind": "user",
    "methods": {},
    "version": 1
  }
}